{
  "_format": "hh-sol-artifact-1",
  "contractName": "Test20",
  "sourceName": "contracts/test20.sol",
  "abi": [
    {
      "inputs": [
        {
          "internalType": "string",
          "name": "_name",
          "type": "string"
        },
        {
          "internalType": "string",
          "name": "_symbol",
          "type": "string"
        },
        {
          "internalType": "uint8",
          "name": "_decimals",
          "type": "uint8"
        },
        {
          "internalType": "uint256",
          "name": "_emissionRatePerBlock",
          "type": "uint256"
        }
      ],
      "stateMutability": "nonpayable",
      "type": "constructor"
    },
    {
      "anonymous": false,
      "inputs": [
        {
          "indexed": true,
          "internalType": "address",
          "name": "owner",
          "type": "address"
        },
        {
          "indexed": true,
          "internalType": "address",
          "name": "spender",
          "type": "address"
        },
        {
          "indexed": false,
          "internalType": "uint256",
          "name": "amount",
          "type": "uint256"
        }
      ],
      "name": "Approval",
      "type": "event"
    },
    {
      "anonymous": false,
      "inputs": [
        {
          "indexed": true,
          "internalType": "address",
          "name": "from",
          "type": "address"
        },
        {
          "indexed": true,
          "internalType": "address",
          "name": "to",
          "type": "address"
        },
        {
          "indexed": false,
          "internalType": "uint256",
          "name": "amount",
          "type": "uint256"
        }
      ],
      "name": "Transfer",
      "type": "event"
    },
    {
      "inputs": [
        {
          "internalType": "address",
          "name": "",
          "type": "address"
        },
        {
          "internalType": "address",
          "name": "",
          "type": "address"
        }
      ],
      "name": "allowance",
      "outputs": [
        {
          "internalType": "uint256",
          "name": "",
          "type": "uint256"
        }
      ],
      "stateMutability": "view",
      "type": "function"
    },
    {
      "inputs": [
        {
          "internalType": "address",
          "name": "spender",
          "type": "address"
        },
        {
          "internalType": "uint256",
          "name": "amount",
          "type": "uint256"
        }
      ],
      "name": "approve",
      "outputs": [
        {
          "internalType": "bool",
          "name": "",
          "type": "bool"
        }
      ],
      "stateMutability": "nonpayable",
      "type": "function"
    },
    {
      "inputs": [
        {
          "internalType": "address",
          "name": "addr",
          "type": "address"
        }
      ],
      "name": "balanceOf",
      "outputs": [
        {
          "internalType": "uint256",
          "name": "",
          "type": "uint256"
        }
      ],
      "stateMutability": "view",
      "type": "function"
    },
    {
      "inputs": [
        {
          "internalType": "address",
          "name": "from",
          "type": "address"
        },
        {
          "internalType": "uint256",
          "name": "value",
          "type": "uint256"
        }
      ],
      "name": "burn",
      "outputs": [],
      "stateMutability": "nonpayable",
      "type": "function"
    },
    {
      "inputs": [],
      "name": "decimals",
      "outputs": [
        {
          "internalType": "uint8",
          "name": "",
          "type": "uint8"
        }
      ],
      "stateMutability": "view",
      "type": "function"
    },
    {
      "inputs": [],
      "name": "emissionRatePerBlock",
      "outputs": [
        {
          "internalType": "uint256",
          "name": "",
          "type": "uint256"
        }
      ],
      "stateMutability": "view",
      "type": "function"
    },
    {
      "inputs": [
        {
          "internalType": "uint256",
          "name": "amount",
          "type": "uint256"
        }
      ],
      "name": "mint",
      "outputs": [],
      "stateMutability": "nonpayable",
      "type": "function"
    },
    {
      "inputs": [],
      "name": "name",
      "outputs": [
        {
          "internalType": "string",
          "name": "",
          "type": "string"
        }
      ],
      "stateMutability": "view",
      "type": "function"
    },
    {
      "inputs": [
        {
          "internalType": "address",
          "name": "addr",
          "type": "address"
        }
      ],
      "name": "startDripping",
      "outputs": [],
      "stateMutability": "nonpayable",
      "type": "function"
    },
    {
      "inputs": [
        {
          "internalType": "address",
          "name": "addr",
          "type": "address"
        }
      ],
      "name": "stopDripping",
      "outputs": [],
      "stateMutability": "nonpayable",
      "type": "function"
    },
    {
      "inputs": [],
      "name": "symbol",
      "outputs": [
        {
          "internalType": "string",
          "name": "",
          "type": "string"
        }
      ],
      "stateMutability": "view",
      "type": "function"
    },
    {
      "inputs": [],
      "name": "totalSupply",
      "outputs": [
        {
          "internalType": "uint256",
          "name": "",
          "type": "uint256"
        }
      ],
      "stateMutability": "view",
      "type": "function"
    },
    {
      "inputs": [
        {
          "internalType": "address",
          "name": "to",
          "type": "address"
        },
        {
          "internalType": "uint256",
          "name": "amount",
          "type": "uint256"
        }
      ],
      "name": "transfer",
      "outputs": [
        {
          "internalType": "bool",
          "name": "",
          "type": "bool"
        }
      ],
      "stateMutability": "nonpayable",
      "type": "function"
    },
    {
      "inputs": [
        {
          "internalType": "address",
          "name": "from",
          "type": "address"
        },
        {
          "internalType": "address",
          "name": "to",
          "type": "address"
        },
        {
          "internalType": "uint256",
          "name": "amount",
          "type": "uint256"
        }
      ],
      "name": "transferFrom",
      "outputs": [
        {
          "internalType": "bool",
          "name": "",
          "type": "bool"
        }
      ],
      "stateMutability": "nonpayable",
      "type": "function"
    }
  ],
  "bytecode": "0x60c06040523480156200001157600080fd5b5060405162000d8f38038062000d8f8339810160408190526200003491620001f2565b838383838360009080519060200190620000509291906200007f565b508251620000669060019060208601906200007f565b5060ff90911660805260a05250620002b9945050505050565b8280546200008d906200027d565b90600052602060002090601f016020900481019282620000b15760008555620000fc565b82601f10620000cc57805160ff1916838001178555620000fc565b82800160010185558215620000fc579182015b82811115620000fc578251825591602001919060010190620000df565b506200010a9291506200010e565b5090565b5b808211156200010a57600081556001016200010f565b634e487b7160e01b600052604160045260246000fd5b600082601f8301126200014d57600080fd5b81516001600160401b03808211156200016a576200016a62000125565b604051601f8301601f19908116603f0116810190828211818310171562000195576200019562000125565b81604052838152602092508683858801011115620001b257600080fd5b600091505b83821015620001d65785820183015181830184015290820190620001b7565b83821115620001e85760008385830101525b9695505050505050565b600080600080608085870312156200020957600080fd5b84516001600160401b03808211156200022157600080fd5b6200022f888389016200013b565b955060208701519150808211156200024657600080fd5b5062000255878288016200013b565b935050604085015160ff811681146200026d57600080fd5b6060959095015193969295505050565b600181811c908216806200029257607f821691505b602082108103620002b357634e487b7160e01b600052602260045260246000fd5b50919050565b60805160a051610aa2620002ed600039600081816101bf0152818161036101526104670152600061015e0152610aa26000f3fe608060405234801561001057600080fd5b50600436106100ea5760003560e01c80638b5298391161008c578063a0712d6811610066578063a0712d68146101fc578063a9059cbb1461020f578063b5484c5614610222578063dd62ed3e1461023557600080fd5b80638b529839146101ba57806395d89b41146101e15780639dc29fac146101e957600080fd5b806323b872dd116100c857806323b872dd14610146578063313ce5671461015957806340ea8d881461019257806370a08231146101a757600080fd5b806306fdde03146100ef578063095ea7b31461010d57806318160ddd14610130575b600080fd5b6100f7610260565b6040516101049190610872565b60405180910390f35b61012061011b3660046108e3565b6102ee565b6040519015158152602001610104565b61013861035a565b604051908152602001610104565b61012061015436600461090d565b6103b4565b6101807f000000000000000000000000000000000000000000000000000000000000000081565b60405160ff9091168152602001610104565b6101a56101a0366004610949565b610426565b005b6101386101b5366004610949565b610432565b6101387f000000000000000000000000000000000000000000000000000000000000000081565b6100f76104ac565b6101a56101f73660046108e3565b6104b9565b6101a561020a36600461096b565b6104c7565b61012061021d3660046108e3565b6104d1565b6101a5610230366004610949565b6104e7565b610138610243366004610984565b600260209081526000928352604080842090915290825290205481565b6000805461026d906109b7565b80601f0160208091040260200160405190810160405280929190818152602001828054610299906109b7565b80156102e65780601f106102bb576101008083540402835291602001916102e6565b820191906000526020600020905b8154815290600101906020018083116102c957829003601f168201915b505050505081565b3360008181526002602090815260408083206001600160a01b038716808552925280832085905551919290917f8c5be1e5ebec7d5bd14f71427d1e84f3dd0314c0f7b2291e5b200ac8c7c3b925906103499086815260200190565b60405180910390a350600192915050565b60006007547f00000000000000000000000000000000000000000000000000000000000000006006544361038e9190610a07565b6103989190610a1e565b6103a29190610a1e565b6005546103af9190610a3d565b905090565b6001600160a01b03831660009081526002602090815260408083203384529091528120546000198114610410576103eb8382610a07565b6001600160a01b03861660009081526002602090815260408083203384529091529020555b61041b8585856104f0565b506001949350505050565b61042f81610616565b50565b6001600160a01b0381166000908152600460209081526040808320546003909252822054818303610464579392505050565b807f00000000000000000000000000000000000000000000000000000000000000006104908443610a07565b61049a9190610a1e565b6104a49190610a3d565b949350505050565b6001805461026d906109b7565b6104c382826106aa565b5050565b61042f3382610762565b60006104de3384846104f0565b50600192915050565b61042f816107b7565b6001600160a01b0382166105575760405162461bcd60e51b815260206004820152602360248201527f45524332303a207472616e7366657220746f20746865207a65726f206164647260448201526265737360e81b60648201526084015b60405180910390fd5b8061056184610432565b61056b9190610a07565b6001600160a01b03808516600081815260036020908152604080832095909555928616815283812080548601905590815260049091522054156105c4576001600160a01b03831660009081526004602052604090204390555b816001600160a01b0316836001600160a01b03167fddf252ad1be2c89b69c2b068fc378daa952ba7f163c4a11628f55a4df523b3ef8360405161060991815260200190565b60405180910390a3505050565b6001600160a01b038116600090815260046020526040902054156106745760405162461bcd60e51b81526020600482015260156024820152747573657220616c7265616479206163637275696e6760581b604482015260640161054e565b61067c61035a565b6005554360068190556007805460010190556001600160a01b03909116600090815260046020526040902055565b6106b261035a565b60055543600655806106c383610432565b6106cd9190610a07565b6001600160a01b0383166000908152600360209081526040808320939093556005805485900390556004905220541561071c576001600160a01b03821660009081526004602052604090204390555b6040518181526000906001600160a01b038416907fddf252ad1be2c89b69c2b068fc378daa952ba7f163c4a11628f55a4df523b3ef906020015b60405180910390a35050565b60058054820190556001600160a01b0382166000818152600360209081526040808320805486019055518481527fddf252ad1be2c89b69c2b068fc378daa952ba7f163c4a11628f55a4df523b3ef9101610756565b6001600160a01b03811660009081526004602052604081205490036108125760405162461bcd60e51b815260206004820152601160248201527075736572206e6f74206163637275696e6760781b604482015260640161054e565b61081b81610432565b6001600160a01b03821660009081526003602052604090205561083c61035a565b600555436006556007805490600061085383610a55565b90915550506001600160a01b0316600090815260046020526040812055565b600060208083528351808285015260005b8181101561089f57858101830151858201604001528201610883565b818111156108b1576000604083870101525b50601f01601f1916929092016040019392505050565b80356001600160a01b03811681146108de57600080fd5b919050565b600080604083850312156108f657600080fd5b6108ff836108c7565b946020939093013593505050565b60008060006060848603121561092257600080fd5b61092b846108c7565b9250610939602085016108c7565b9150604084013590509250925092565b60006020828403121561095b57600080fd5b610964826108c7565b9392505050565b60006020828403121561097d57600080fd5b5035919050565b6000806040838503121561099757600080fd5b6109a0836108c7565b91506109ae602084016108c7565b90509250929050565b600181811c908216806109cb57607f821691505b6020821081036109eb57634e487b7160e01b600052602260045260246000fd5b50919050565b634e487b7160e01b600052601160045260246000fd5b600082821015610a1957610a196109f1565b500390565b6000816000190483118215151615610a3857610a386109f1565b500290565b60008219821115610a5057610a506109f1565b500190565b600081610a6457610a646109f1565b50600019019056fea2646970667358221220e426fe8ac7e067e7b8ac3dfef0029a45c9d4844c99c82179c32312ea9b1e5bc864736f6c634300080d0033",
  "linkReferences": {},
  "deployedLinkReferences": {}
}